{
  "contractName": "Arthmetic",
  "abi": [
    {
      "constant": true,
      "inputs": [],
      "name": "data",
      "outputs": [
        {
          "name": "",
          "type": "uint256"
        }
      ],
      "payable": false,
      "stateMutability": "view",
      "type": "function"
    },
    {
      "constant": false,
      "inputs": [
        {
          "name": "a",
          "type": "uint256"
        }
      ],
      "name": "setData",
      "outputs": [],
      "payable": false,
      "stateMutability": "nonpayable",
      "type": "function"
    },
    {
      "constant": false,
      "inputs": [
        {
          "name": "a",
          "type": "uint256"
        },
        {
          "name": "b",
          "type": "uint256"
        }
      ],
      "name": "add",
      "outputs": [],
      "payable": false,
      "stateMutability": "nonpayable",
      "type": "function"
    },
    {
      "constant": false,
      "inputs": [
        {
          "name": "a",
          "type": "uint256"
        },
        {
          "name": "b",
          "type": "uint256"
        }
      ],
      "name": "addWithMod",
      "outputs": [],
      "payable": false,
      "stateMutability": "nonpayable",
      "type": "function"
    }
  ],
  "bytecode": "0x608060405234801561001057600080fd5b5061016e806100206000396000f3fe608060405234801561001057600080fd5b506004361061004c5760003560e01c80635b4b73a91461005157806373d4a13a1461007f578063771602f71461009d5780638db43787146100d5575b600080fd5b61007d6004803603602081101561006757600080fd5b810190808035906020019092919050505061010d565b005b610087610117565b6040518082815260200191505060405180910390f35b6100d3600480360360408110156100b357600080fd5b81019080803590602001909291908035906020019092919050505061011d565b005b61010b600480360360408110156100eb57600080fd5b81019080803590602001909291908035906020019092919050505061012a565b005b8060008190555050565b60005481565b8082016000819055505050565b600180151561013557fe5b818308600081905550505056fea165627a7a72305820991dadc164338fe7846e1fd0bfe4c8dec7b3cd9a5f611909e989f2492508b8930029",
  "source": "pragma solidity ^0.5.5;\r\n\r\ncontract Arthmetic {\r\n    uint256 public data;\r\n\r\n    function setData(uint256 a) public {\r\n        data = a;\r\n    }\r\n\r\n    function add(uint256 a, uint256 b) public {\r\n        data = a + b;\r\n    }\r\n\r\n    function addWithMod(uint256 a, uint256 b) public {\r\n        data = addmod(a, b, 1);\r\n    }\r\n}\r\n",
  "sourcePath": "C:\\Users\\ramah\\personal-projects\\musc-testing-r2-custom\\contracts\\Arthmetic.sol",
  "compiler": {
    "name": "solc",
    "version": "0.5.5+commit.47a71e8f.Emscripten.clang"
  },
  "schemaVersion": "3.4.3",
  "updatedAt": "2021-10-28T18:23:41.478Z",
  "devdoc": {
    "methods": {}
  },
  "userdoc": {
    "methods": {}
  }
}