{
  "contractName": "Arthmetic",
  "abi": [
    {
      "constant": true,
      "inputs": [],
      "name": "data",
      "outputs": [
        {
          "name": "",
          "type": "uint256"
        }
      ],
      "payable": false,
      "stateMutability": "view",
      "type": "function"
    },
    {
      "constant": true,
      "inputs": [
        {
          "name": "a",
          "type": "uint256"
        }
      ],
      "name": "f",
      "outputs": [
        {
          "name": "b",
          "type": "uint256"
        }
      ],
      "payable": false,
      "stateMutability": "pure",
      "type": "function"
    },
    {
      "constant": false,
      "inputs": [
        {
          "name": "a",
          "type": "uint256"
        }
      ],
      "name": "setData",
      "outputs": [],
      "payable": false,
      "stateMutability": "nonpayable",
      "type": "function"
    },
    {
      "constant": false,
      "inputs": [
        {
          "name": "a",
          "type": "uint256"
        },
        {
          "name": "b",
          "type": "uint256"
        }
      ],
      "name": "add",
      "outputs": [],
      "payable": false,
      "stateMutability": "nonpayable",
      "type": "function"
    },
    {
      "constant": false,
      "inputs": [
        {
          "name": "a",
          "type": "uint256"
        },
        {
          "name": "b",
          "type": "uint256"
        }
      ],
      "name": "addWithMod",
      "outputs": [],
      "payable": false,
      "stateMutability": "nonpayable",
      "type": "function"
    }
  ],
  "bytecode": "0x608060405234801561001057600080fd5b506101c2806100206000396000f3fe608060405234801561001057600080fd5b50600436106100575760003560e01c80635b4b73a91461005c57806373d4a13a1461008a578063771602f7146100a85780638db43787146100e0578063b3de648b14610118575b600080fd5b6100886004803603602081101561007257600080fd5b810190808035906020019092919050505061015a565b005b610092610164565b6040518082815260200191505060405180910390f35b6100de600480360360408110156100be57600080fd5b81019080803590602001909291908035906020019092919050505061016a565b005b610116600480360360408110156100f657600080fd5b810190808035906020019092919080359060200190929190505050610177565b005b6101446004803603602081101561012e57600080fd5b810190808035906020019092919050505061018f565b6040518082815260200191505060405180910390f35b8060008190555050565b60005481565b8082016000819055505050565b600180151561018257fe5b8183086000819055505050565b600091905056fea165627a7a7230582080cc5243f0e9aee24727a6b3b4f0a40f0cbf48cd9974c2b012eb279aec9c1c690029",
  "source": "pragma solidity ^0.5.5;\r\n\r\ncontract Arthmetic {\r\n    uint256 public data;\r\n\r\n    function f(uint256 a) public pure returns (uint256 b) {}\r\n\r\n    function setData(uint256 a) public {\r\n        data = a;\r\n    }\r\n\r\n    function add(uint256 a, uint256 b) public {\r\n        data = a + b;\r\n    }\r\n\r\n    function addWithMod(uint256 a, uint256 b) public {\r\n        data = addmod(a, b, 1);\r\n    }\r\n}\r\n",
  "sourcePath": "C:\\Users\\ramah\\personal-projects\\musc-testing-r2-custom\\contracts\\Arthmetic.sol",
  "compiler": {
    "name": "solc",
    "version": "0.5.5+commit.47a71e8f.Emscripten.clang"
  },
  "schemaVersion": "3.4.3",
  "updatedAt": "2021-10-28T06:35:23.356Z",
  "devdoc": {
    "methods": {}
  },
  "userdoc": {
    "methods": {}
  }
}