{
  "contractName": "Arthmetic",
  "abi": [
    {
      "constant": true,
      "inputs": [
        {
          "name": "",
          "type": "uint256"
        }
      ],
      "name": "array3",
      "outputs": [
        {
          "name": "",
          "type": "uint256"
        }
      ],
      "payable": false,
      "stateMutability": "view",
      "type": "function"
    },
    {
      "constant": true,
      "inputs": [],
      "name": "data",
      "outputs": [
        {
          "name": "",
          "type": "uint256"
        }
      ],
      "payable": false,
      "stateMutability": "view",
      "type": "function"
    },
    {
      "constant": true,
      "inputs": [],
      "name": "strData",
      "outputs": [
        {
          "name": "",
          "type": "string"
        }
      ],
      "payable": false,
      "stateMutability": "view",
      "type": "function"
    },
    {
      "constant": false,
      "inputs": [],
      "name": "compareSums",
      "outputs": [],
      "payable": false,
      "stateMutability": "nonpayable",
      "type": "function"
    },
    {
      "constant": true,
      "inputs": [
        {
          "name": "value",
          "type": "uint256"
        }
      ],
      "name": "turnToString",
      "outputs": [
        {
          "name": "",
          "type": "string"
        }
      ],
      "payable": false,
      "stateMutability": "pure",
      "type": "function"
    },
    {
      "constant": false,
      "inputs": [
        {
          "name": "a",
          "type": "uint256"
        },
        {
          "name": "b",
          "type": "uint256"
        }
      ],
      "name": "pwr",
      "outputs": [],
      "payable": false,
      "stateMutability": "nonpayable",
      "type": "function"
    },
    {
      "constant": false,
      "inputs": [
        {
          "name": "b",
          "type": "uint256"
        }
      ],
      "name": "contains",
      "outputs": [],
      "payable": false,
      "stateMutability": "nonpayable",
      "type": "function"
    },
    {
      "constant": false,
      "inputs": [],
      "name": "concati",
      "outputs": [],
      "payable": false,
      "stateMutability": "nonpayable",
      "type": "function"
    }
  ],
  "bytecode": "0x60806040526040518060800160405280600a60ff168152602001600760ff168152602001600860ff168152602001600960ff16815250600290600461004592919061009a565b506040518060800160405280600060ff168152602001600260ff168152602001600660ff168152602001600a60ff16815250600690600461008792919061009a565b5034801561009457600080fd5b50610104565b82600481019282156100ce579160200282015b828111156100cd578251829060ff169055916020019190600101906100ad565b5b5090506100db91906100df565b5090565b61010191905b808211156100fd5760008160009055506001016100e5565b5090565b90565b610640806101136000396000f3fe608060405234801561001057600080fd5b50600436106100885760003560e01c8063b5c6dff61161005b578063b5c6dff61461017a578063c34052e014610184578063d7e2f968146101b2578063f74e9bde1461025957610088565b8063708cb80a1461008d57806373d4a13a146100cf578063892398bc146100ed57806395da70a8146100f7575b600080fd5b6100b9600480360360208110156100a357600080fd5b8101908080359060200190929190505050610291565b6040518082815260200191505060405180910390f35b6100d76102ab565b6040518082815260200191505060405180910390f35b6100f56102b1565b005b6100ff610335565b6040518080602001828103825283818151815260200191508051906020019080838360005b8381101561013f578082015181840152602081019050610124565b50505050905090810190601f16801561016c5780820380516001836020036101000a031916815260200191505b509250505060405180910390f35b6101826103d3565b005b6101b06004803603602081101561019a57600080fd5b8101908080359060200190929190505050610484565b005b6101de600480360360208110156101c857600080fd5b81019080803590602001909291905050506104d0565b6040518080602001828103825283818151815260200191508051906020019080838360005b8381101561021e578082015181840152602081019050610203565b50505050905090810190601f16801561024b5780820380516001836020036101000a031916815260200191505b509250505060405180910390f35b61028f6004803603604081101561026f57600080fd5b810190808035906020019092919080359060200190929190505050610607565b005b600a816008811015156102a057fe5b016000915090505481565b60005481565b6000809050600090505b60048110156102f6576002816004811015156102d357fe5b0154600a826008811015156102e457fe5b018190555080806001019150506102bb565b5b60048110156103325760068160048110151561030f57fe5b0154600a8260088110151561032057fe5b018190555080806001019150506102f7565b50565b60018054600181600116156101000203166002900480601f0160208091040260200160405190810160405280929190818152602001828054600181600116156101000203166002900480156103cb5780601f106103a0576101008083540402835291602001916103cb565b820191906000526020600020905b8154815290600101906020018083116103ae57829003601f168201915b505050505081565b6000600410806103e4575060006004105b156103f157600080819055505b6000806000905060008090506000809050600092505b838310156104315760028360048110151561041e57fe5b0154820191508280600101935050610407565b600092505b838310156104605760068360048110151561044d57fe5b0154810190508280600101935050610436565b8082111561047557600160008190555061047e565b60026000819055505b50505050565b600080905060008081905550600090505b60048110156104cc57816002826004811015156104ae57fe5b015414156104bf5760016000819055505b8080600101915050610495565b5050565b60606000829050600083141561051e576040518060400160405280600181526020017f3000000000000000000000000000000000000000000000000000000000000000815250915050610602565b600081905060005b60008214151561054c578080600101915050600a8281151561054457fe5b049150610526565b6060816040519080825280601f01601f1916602001820160405280156105815781602001600182028038833980820191505090505b5090505b6000841415156105fa57600182039150600a868115156105a157fe5b0660300160f81b81838151811015156105b657fe5b9060200101907effffffffffffffffffffffffffffffffffffffffffffffffffffffffffffff1916908160001a905350600a848115156105f257fe5b049350610585565b809450505050505b919050565b80820a600081905550505056fea165627a7a72305820341f35d6e6369322465fba17827b6277b4bb4312cbc9ab1383890f0851a26dc30029",
  "source": "pragma solidity ^0.5.5;\r\n\r\ncontract Arthmetic {\r\n    uint256 public data;\r\n    string public strData;\r\n    uint256[4] array1 = [10, 7, 8, 9];\r\n    uint256[4] array2 = [0, 2, 6, 10];\r\n    uint256[8] public array3;\r\n    bool dataB;\r\n\r\n    function compareSums() public {\r\n        if (array1.length < 0 || array2.length < 0) data = 0;\r\n        uint256 count;\r\n        uint256 i = 0;\r\n        uint256 sumA = 0;\r\n        uint256 sumB = 0;\r\n        for (i = 0; i < count; i++) {\r\n            sumA += array1[i];\r\n        }\r\n        for (i = 0; i < count; i++) {\r\n            sumB += array2[i];\r\n        }\r\n        if (sumA > sumB) data = 1;\r\n        else data = 2;\r\n        //data = (sumA > sumB ? 1 : 2);\r\n    }\r\n\r\n    //return value change\r\n    function turnToString(uint256 value) external pure returns (string memory) {\r\n        uint256 val = value;\r\n        if (value == 0) {\r\n            return \"0\";\r\n        }\r\n        uint256 temp = val;\r\n        uint256 digits;\r\n        while (temp != 0) {\r\n            digits++;\r\n            temp /= 10;\r\n        }\r\n        bytes memory buffer = new bytes(digits);\r\n        while (val != 0) {\r\n            digits -= 1;\r\n            buffer[digits] = bytes1(uint8(48 + uint256(value % 10)));\r\n            val /= 10;\r\n        }\r\n        return string(buffer);\r\n    }\r\n\r\n    function pwr(uint256 a, uint256 b) public {\r\n        data = a**b;\r\n    }\r\n\r\n    function contains(uint256 b) public {\r\n        uint256 i = 0;\r\n        data = 0;\r\n        for (i = 0; i < array1.length; i++) {\r\n            if (array1[i] == b) data = 1;\r\n        }\r\n    }\r\n\r\n    function concati() public {\r\n        uint256 i = 0;\r\n        for (i = 0; i < array1.length; i++) {\r\n            array3[i] = array1[i];\r\n        }\r\n        for (i; i < array2.length; i++) {\r\n            array3[i] = array2[i];\r\n        }\r\n    }\r\n}\r\n",
  "sourcePath": "C:\\Users\\ramah\\personal-projects\\musc-testing-r2-custom\\contracts\\Arthmetic.sol",
  "compiler": {
    "name": "solc",
    "version": "0.5.5+commit.47a71e8f.Emscripten.clang"
  },
  "schemaVersion": "3.4.3",
  "updatedAt": "2021-11-29T01:03:23.914Z",
  "devdoc": {
    "methods": {}
  },
  "userdoc": {
    "methods": {}
  }
}