{
  "contractName": "ESCSpecificTwo",
  "abi": [
    {
      "constant": true,
      "inputs": [],
      "name": "contractBalance",
      "outputs": [
        {
          "name": "",
          "type": "uint256"
        }
      ],
      "payable": false,
      "stateMutability": "view",
      "type": "function"
    },
    {
      "inputs": [
        {
          "name": "bal",
          "type": "uint256"
        }
      ],
      "payable": false,
      "stateMutability": "nonpayable",
      "type": "constructor"
    },
    {
      "constant": false,
      "inputs": [
        {
          "name": "a",
          "type": "address"
        }
      ],
      "name": "sendHalfBalance",
      "outputs": [
        {
          "name": "",
          "type": "uint256"
        }
      ],
      "payable": true,
      "stateMutability": "payable",
      "type": "function"
    },
    {
      "constant": false,
      "inputs": [
        {
          "name": "a",
          "type": "uint256"
        },
        {
          "name": "cashType",
          "type": "uint256"
        }
      ],
      "name": "updateContractBal",
      "outputs": [
        {
          "name": "",
          "type": "uint256"
        }
      ],
      "payable": false,
      "stateMutability": "nonpayable",
      "type": "function"
    },
    {
      "constant": true,
      "inputs": [],
      "name": "checkForSzabo",
      "outputs": [
        {
          "name": "",
          "type": "uint256"
        }
      ],
      "payable": false,
      "stateMutability": "view",
      "type": "function"
    },
    {
      "constant": true,
      "inputs": [],
      "name": "checkForFinney",
      "outputs": [
        {
          "name": "",
          "type": "uint256"
        }
      ],
      "payable": false,
      "stateMutability": "view",
      "type": "function"
    },
    {
      "constant": true,
      "inputs": [],
      "name": "checkForWei",
      "outputs": [
        {
          "name": "",
          "type": "uint256"
        }
      ],
      "payable": false,
      "stateMutability": "view",
      "type": "function"
    },
    {
      "constant": true,
      "inputs": [],
      "name": "checkForEther",
      "outputs": [
        {
          "name": "",
          "type": "uint256"
        }
      ],
      "payable": false,
      "stateMutability": "view",
      "type": "function"
    }
  ],
  "bytecode": "0x608060405234801561001057600080fd5b5060405160208061052b8339810180604052602081101561003057600080fd5b810190808051906020019092919050505080600081905550506104d3806100586000396000f3fe6080604052600436106100705760003560e01c80638b7afe2e1161004e5780638b7afe2e146100f6578063b3af218a14610121578063f1197f041461014c578063f6fd2b25146101a457610070565b806307dd7827146100755780632bf76da2146100a057806389b1c9bf146100cb575b600080fd5b34801561008157600080fd5b5061008a6101fd565b6040518082815260200191505060405180910390f35b3480156100ac57600080fd5b506100b5610228565b6040518082815260200191505060405180910390f35b3480156100d757600080fd5b506100e0610255565b6040518082815260200191505060405180910390f35b34801561010257600080fd5b5061010b61027f565b6040518082815260200191505060405180910390f35b34801561012d57600080fd5b50610136610285565b6040518082815260200191505060405180910390f35b61018e6004803603602081101561016257600080fd5b81019080803573ffffffffffffffffffffffffffffffffffffffff1690602001909291905050506102aa565b6040518082815260200191505060405180910390f35b3480156101b057600080fd5b506101e7600480360360408110156101c757600080fd5b8101908080359060200190929190803590602001909291905050506103a3565b6040518082815260200191505060405180910390f35b600066f8b0a10e4700006000541015156102205760008054905080915050610225565b600090505b90565b60006803cb71f51fc558000060005410151561024d5760008054905080915050610252565b600090505b90565b6000653faa25226000600054101515610277576000805490508091505061027c565b600090505b90565b60005481565b600060466000541015156102a257600080549050809150506102a7565b600090505b90565b6000806002348115156102b957fe5b0614151561032f576040517f08c379a00000000000000000000000000000000000000000000000000000000081526004018080602001828103825260148152602001807f4576656e2076616c75652072657175697265642e00000000000000000000000081525060200191505060405180910390fd5b8173ffffffffffffffffffffffffffffffffffffffff166108fc60023481151561035557fe5b049081150290604051600060405180830381858888f19350505050158015610381573d6000803e3d6000fd5b5060023481151561038e57fe5b04600054036000819055506000549050919050565b600060048211151515610401576040517f08c379a00000000000000000000000000000000000000000000000000000000081526004018080602001828103825260368152602001806104726036913960400191505060405180910390fd5b6000600183141561041757600184029050610463565b60028314156104315766038d7ea4c6800084029050610462565b600383141561044c57670de0b6b3a764000084029050610461565b60048314156104605764e8d4a51000840290505b5b5b5b80600081905550509291505056fe537570706f7274656420636f6e76657273696f6e7320617265207765692c65746865722c66696e6e65792c65746865722c737a61626fa165627a7a7230582048ba61fb9c889817df2a19ab4228eed5c5ff9e1109dbfb329b427415e325dcf00029",
  "source": "pragma solidity ^0.5.5;\r\n\r\ncontract ESCSpecificTwo {\r\n    uint256 public contractBalance;\r\n\r\n    constructor(uint256 bal) public {\r\n        contractBalance = bal;\r\n    }\r\n\r\n    function sendHalfBalance(address payable a)\r\n        public\r\n        payable\r\n        returns (uint256)\r\n    {\r\n        require(msg.value % 2 == 0, \"Even value required.\");\r\n        a.transfer(msg.value / 2);\r\n        contractBalance = contractBalance - msg.value / 2;\r\n        return contractBalance;\r\n    }\r\n\r\n    function updateContractBal(uint256 a, uint256 cashType)\r\n        public\r\n        returns (uint256)\r\n    {\r\n        require(\r\n            cashType <= 4,\r\n            \"Supported conversions are wei,ether,finney,ether,szabo\"\r\n        );\r\n        uint256 cash;\r\n        if (cashType == 1) {\r\n            cash = a * 1 wei;\r\n        } else if (cashType == 2) {\r\n            cash = a * 1 finney;\r\n        } else if (cashType == 3) {\r\n            cash = a * 1 ether;\r\n        } else if (cashType == 4) {\r\n            cash = a * 1 szabo;\r\n        }\r\n        contractBalance = cash;\r\n    }\r\n\r\n    function checkForSzabo() public view returns (uint256) {\r\n        if (contractBalance >= 70 szabo) {\r\n            uint256 sendProfit = contractBalance;\r\n            return sendProfit;\r\n        }\r\n        return 0;\r\n    }\r\n\r\n    function checkForFinney() public view returns (uint256) {\r\n        if (contractBalance >= 70 finney) {\r\n            uint256 sendProfit = contractBalance;\r\n            return sendProfit;\r\n        }\r\n        return 0;\r\n    }\r\n\r\n    function checkForWei() public view returns (uint256) {\r\n        if (contractBalance >= 70 wei) {\r\n            uint256 sendProfit = contractBalance;\r\n            return sendProfit;\r\n        }\r\n        return 0;\r\n    }\r\n\r\n    function checkForEther() public view returns (uint256) {\r\n        if (contractBalance >= 70 ether) {\r\n            uint256 sendProfit = contractBalance;\r\n            return sendProfit;\r\n        }\r\n        return 0;\r\n    }\r\n}\r\n",
  "sourcePath": "C:\\Users\\ramah\\personal-projects\\musc-testing-r2-custom\\contracts\\EscMutation_two.sol",
  "compiler": {
    "name": "solc",
    "version": "0.5.5+commit.47a71e8f.Emscripten.clang"
  },
  "schemaVersion": "3.4.3",
  "updatedAt": "2021-10-30T22:32:55.814Z",
  "devdoc": {
    "methods": {}
  },
  "userdoc": {
    "methods": {}
  }
}