{
  "contractName": "ESCSpecificOne",
  "abi": [
    {
      "constant": true,
      "inputs": [],
      "name": "initiatedDate",
      "outputs": [
        {
          "name": "",
          "type": "uint256"
        }
      ],
      "payable": false,
      "stateMutability": "view",
      "type": "function"
    },
    {
      "constant": true,
      "inputs": [],
      "name": "contractStatus",
      "outputs": [
        {
          "name": "",
          "type": "bool"
        }
      ],
      "payable": false,
      "stateMutability": "view",
      "type": "function"
    },
    {
      "inputs": [],
      "payable": false,
      "stateMutability": "nonpayable",
      "type": "constructor"
    },
    {
      "constant": true,
      "inputs": [
        {
          "name": "b",
          "type": "uint256"
        }
      ],
      "name": "deleteVariable",
      "outputs": [
        {
          "name": "",
          "type": "uint256"
        }
      ],
      "payable": false,
      "stateMutability": "pure",
      "type": "function"
    },
    {
      "constant": true,
      "inputs": [],
      "name": "getNow",
      "outputs": [
        {
          "name": "",
          "type": "uint256"
        }
      ],
      "payable": false,
      "stateMutability": "view",
      "type": "function"
    },
    {
      "constant": true,
      "inputs": [],
      "name": "getMsgSender",
      "outputs": [
        {
          "name": "",
          "type": "address"
        }
      ],
      "payable": false,
      "stateMutability": "view",
      "type": "function"
    },
    {
      "constant": true,
      "inputs": [
        {
          "name": "x",
          "type": "uint256"
        },
        {
          "name": "y",
          "type": "uint256"
        },
        {
          "name": "k",
          "type": "uint256"
        }
      ],
      "name": "addThree",
      "outputs": [
        {
          "name": "",
          "type": "uint256"
        }
      ],
      "payable": false,
      "stateMutability": "pure",
      "type": "function"
    },
    {
      "constant": true,
      "inputs": [
        {
          "name": "x",
          "type": "uint256"
        },
        {
          "name": "y",
          "type": "uint256"
        },
        {
          "name": "k",
          "type": "uint256"
        }
      ],
      "name": "mulThree",
      "outputs": [
        {
          "name": "",
          "type": "uint256"
        }
      ],
      "payable": false,
      "stateMutability": "pure",
      "type": "function"
    },
    {
      "constant": false,
      "inputs": [
        {
          "name": "s",
          "type": "uint256"
        }
      ],
      "name": "updateInitiatedDate",
      "outputs": [],
      "payable": false,
      "stateMutability": "nonpayable",
      "type": "function"
    },
    {
      "constant": false,
      "inputs": [
        {
          "name": "s",
          "type": "bool"
        }
      ],
      "name": "updateStatus",
      "outputs": [],
      "payable": false,
      "stateMutability": "nonpayable",
      "type": "function"
    }
  ],
  "bytecode": "0x608060405234801561001057600080fd5b5060008060006101000a81548160ff02191690831515021790555033600260006101000a81548173ffffffffffffffffffffffffffffffffffffffff021916908373ffffffffffffffffffffffffffffffffffffffff1602179055506123286001819055506103ae806100846000396000f3fe608060405234801561001057600080fd5b50600436106100935760003560e01c80637a6ce2e1116100665780637a6ce2e11461018e578063bbe4fd50146101d8578063bd81f8b8146101f6578063c6ee20d214610214578063c85464951461023657610093565b806319e072ef146100985780634b970f64146100c8578063585f6e881461010a5780635e99bd6514610138575b600080fd5b6100c6600480360360208110156100ae57600080fd5b8101908080351515906020019092919050505061028c565b005b6100f4600480360360208110156100de57600080fd5b8101908080359060200190929190505050610301565b6040518082815260200191505060405180910390f35b6101366004803603602081101561012057600080fd5b8101908080359060200190929190505050610314565b005b6101786004803603606081101561014e57600080fd5b8101908080359060200190929190803590602001909291908035906020019092919050505061032a565b6040518082815260200191505060405180910390f35b610196610342565b604051808273ffffffffffffffffffffffffffffffffffffffff1673ffffffffffffffffffffffffffffffffffffffff16815260200191505060405180910390f35b6101e061034a565b6040518082815260200191505060405180910390f35b6101fe610352565b6040518082815260200191505060405180910390f35b61021c610358565b604051808215151515815260200191505060405180910390f35b6102766004803603606081101561024c57600080fd5b8101908080359060200190929190803590602001909291908035906020019092919050505061036a565b6040518082815260200191505060405180910390f35b600260009054906101000a900473ffffffffffffffffffffffffffffffffffffffff1673ffffffffffffffffffffffffffffffffffffffff163373ffffffffffffffffffffffffffffffffffffffff161415156102e557fe5b806000806101000a81548160ff02191690831515021790555050565b6000808290506000905080915050919050565b8062093a80111561032757806001819055505b50565b60008180151561033657fe5b83850890509392505050565b600033905090565b600042905090565b60015481565b6000809054906101000a900460ff1681565b60008180151561037657fe5b8385099050939250505056fea165627a7a72305820f4d65823d9e47e95d0f02320619abd55a015961a8e6642d200f9eb0bbcb4e1860029",
  "source": "pragma solidity ^0.5.5;\r\n\r\ncontract ESCSpecificOne {\r\n    bool public contractStatus;\r\n    uint256 public initiatedDate;\r\n    address owner;\r\n\r\n    constructor() public {\r\n        contractStatus = false;\r\n        owner = msg.sender;\r\n        initiatedDate = 9000;\r\n    }\r\n\r\n    function deleteVariable(uint256 b) public pure returns (uint256) {\r\n        uint256 a = b;\r\n        delete a;\r\n        return a;\r\n    }\r\n\r\n    function getNow() public view returns (uint256) {\r\n        return now;\r\n    }\r\n\r\n    function getMsgSender() public view returns (address) {\r\n        return msg.sender;\r\n    }\r\n\r\n    function addThree(\r\n        uint256 x,\r\n        uint256 y,\r\n        uint256 k\r\n    ) public pure returns (uint256) {\r\n        return addmod(x, y, k);\r\n    }\r\n\r\n    function mulThree(\r\n        uint256 x,\r\n        uint256 y,\r\n        uint256 k\r\n    ) public pure returns (uint256) {\r\n        return mulmod(x, y, k);\r\n    }\r\n\r\n    function updateInitiatedDate(uint256 s) public {\r\n        if (1 weeks > s) {\r\n            initiatedDate = s;\r\n        }\r\n    }\r\n\r\n    function updateStatus(bool s) public {\r\n        assert(msg.sender == owner);\r\n        contractStatus = s;\r\n    }\r\n}\r\n",
  "sourcePath": "C:\\Users\\ramah\\personal-projects\\musc-testing-r2-custom\\contracts\\EscMutation_one.sol",
  "compiler": {
    "name": "solc",
    "version": "0.5.5+commit.47a71e8f.Emscripten.clang"
  },
  "schemaVersion": "3.4.3",
  "updatedAt": "2021-11-29T01:03:23.919Z",
  "devdoc": {
    "methods": {}
  },
  "userdoc": {
    "methods": {}
  }
}