{
  "contractName": "ESCSpecificTwo",
  "abi": [
    {
      "constant": true,
      "inputs": [],
      "name": "contractBalance",
      "outputs": [
        {
          "name": "",
          "type": "uint256"
        }
      ],
      "payable": false,
      "stateMutability": "view",
      "type": "function"
    },
    {
      "inputs": [
        {
          "name": "bal",
          "type": "uint256"
        }
      ],
      "payable": false,
      "stateMutability": "nonpayable",
      "type": "constructor"
    },
    {
      "constant": false,
      "inputs": [
        {
          "name": "a",
          "type": "address"
        }
      ],
      "name": "sendHalfBalance",
      "outputs": [
        {
          "name": "",
          "type": "uint256"
        }
      ],
      "payable": true,
      "stateMutability": "payable",
      "type": "function"
    },
    {
      "constant": false,
      "inputs": [
        {
          "name": "a",
          "type": "uint256"
        },
        {
          "name": "cashType",
          "type": "uint256"
        }
      ],
      "name": "updateContractBal",
      "outputs": [
        {
          "name": "",
          "type": "uint256"
        }
      ],
      "payable": false,
      "stateMutability": "nonpayable",
      "type": "function"
    }
  ],
  "bytecode": "0x608060405234801561001057600080fd5b5060405160208061039c8339810180604052602081101561003057600080fd5b81019080805190602001909291905050508060008190555050610344806100586000396000f3fe6080604052600436106100345760003560e01c80638b7afe2e14610039578063f1197f0414610064578063f6fd2b25146100bc575b600080fd5b34801561004557600080fd5b5061004e610115565b6040518082815260200191505060405180910390f35b6100a66004803603602081101561007a57600080fd5b81019080803573ffffffffffffffffffffffffffffffffffffffff16906020019092919050505061011b565b6040518082815260200191505060405180910390f35b3480156100c857600080fd5b506100ff600480360360408110156100df57600080fd5b810190808035906020019092919080359060200190929190505050610214565b6040518082815260200191505060405180910390f35b60005481565b60008060023481151561012a57fe5b061415156101a0576040517f08c379a00000000000000000000000000000000000000000000000000000000081526004018080602001828103825260148152602001807f4576656e2076616c75652072657175697265642e00000000000000000000000081525060200191505060405180910390fd5b8173ffffffffffffffffffffffffffffffffffffffff166108fc6002348115156101c657fe5b049081150290604051600060405180830381858888f193505050501580156101f2573d6000803e3d6000fd5b506002348115156101ff57fe5b04600054036000819055506000549050919050565b600060048211151515610272576040517f08c379a00000000000000000000000000000000000000000000000000000000081526004018080602001828103825260368152602001806102e36036913960400191505060405180910390fd5b60006001831415610288576001840290506102d4565b60028314156102a25766038d7ea4c68000840290506102d3565b60038314156102bd57670de0b6b3a7640000840290506102d2565b60048314156102d15764e8d4a51000840290505b5b5b5b80600081905550509291505056fe537570706f7274656420636f6e76657273696f6e7320617265207765692c65746865722c66696e6e65792c65746865722c737a61626fa165627a7a72305820effb64780c6df7e95e0bb56bfe79132a8960dda9d781b3159f87912f05036f810029",
  "source": "pragma solidity ^0.5.5;\r\n\r\ncontract ESCSpecificTwo {\r\n    uint256 public contractBalance;\r\n\r\n    constructor(uint256 bal) public {\r\n        contractBalance = bal;\r\n    }\r\n\r\n    function sendHalfBalance(address payable a)\r\n        public\r\n        payable\r\n        returns (uint256)\r\n    {\r\n        require(msg.value % 2 == 0, \"Even value required.\");\r\n        a.transfer(msg.value / 2);\r\n        contractBalance = contractBalance - msg.value / 2;\r\n        return contractBalance;\r\n    }\r\n\r\n    function updateContractBal(uint256 a, uint256 cashType)\r\n        public\r\n        returns (uint256)\r\n    {\r\n        require(\r\n            cashType <= 4,\r\n            \"Supported conversions are wei,ether,finney,ether,szabo\"\r\n        );\r\n        uint256 cash;\r\n        if (cashType == 1) {\r\n            cash = a * 1 wei;\r\n        } else if (cashType == 2) {\r\n            cash = a * 1 finney;\r\n        } else if (cashType == 3) {\r\n            cash = a * 1 ether;\r\n        } else if (cashType == 4) {\r\n            cash = a * 1 szabo;\r\n        }\r\n        contractBalance = cash;\r\n    }\r\n\r\n    // function checkForSzabo() public view returns (uint256) {\r\n    //     if (contractBalance >= 70 szabo) {\r\n    //         uint256 sendProfit = contractBalance;\r\n    //         return sendProfit;\r\n    //     }\r\n    //     return 0;\r\n    // }\r\n\r\n    // function checkForFinney() public view returns (uint256) {\r\n    //     if (contractBalance >= 70 finney) {\r\n    //         uint256 sendProfit = contractBalance;\r\n    //         return sendProfit;\r\n    //     }\r\n    //     return 0;\r\n    // }\r\n\r\n    // function checkForWei() public view returns (uint256) {\r\n    //     if (contractBalance >= 70 wei) {\r\n    //         uint256 sendProfit = contractBalance;\r\n    //         return sendProfit;\r\n    //     }\r\n    //     return 0;\r\n    // }\r\n\r\n    // function checkForEther() public view returns (uint256) {\r\n    //     if (contractBalance >= 70 ether) {\r\n    //         uint256 sendProfit = contractBalance;\r\n    //         return sendProfit;\r\n    //     }\r\n    //     return 0;\r\n    // }\r\n}\r\n",
  "sourcePath": "C:\\Users\\ramah\\personal-projects\\musc-testing-r2-custom\\contracts\\EscMutation_two.sol",
  "compiler": {
    "name": "solc",
    "version": "0.5.5+commit.47a71e8f.Emscripten.clang"
  },
  "schemaVersion": "3.4.3",
  "updatedAt": "2021-11-29T01:03:23.922Z",
  "devdoc": {
    "methods": {}
  },
  "userdoc": {
    "methods": {}
  }
}