{
  "contractName": "MutationOperators",
  "abi": [
    {
      "constant": true,
      "inputs": [],
      "name": "a",
      "outputs": [
        {
          "name": "",
          "type": "uint256"
        }
      ],
      "payable": false,
      "stateMutability": "view",
      "type": "function"
    },
    {
      "constant": true,
      "inputs": [],
      "name": "b",
      "outputs": [
        {
          "name": "",
          "type": "uint256"
        }
      ],
      "payable": false,
      "stateMutability": "view",
      "type": "function"
    },
    {
      "constant": true,
      "inputs": [
        {
          "name": "",
          "type": "uint256"
        }
      ],
      "name": "deposits",
      "outputs": [
        {
          "name": "",
          "type": "uint256"
        }
      ],
      "payable": false,
      "stateMutability": "view",
      "type": "function"
    },
    {
      "constant": true,
      "inputs": [
        {
          "name": "",
          "type": "uint256"
        }
      ],
      "name": "items",
      "outputs": [
        {
          "name": "price",
          "type": "uint256"
        },
        {
          "name": "units",
          "type": "uint256"
        }
      ],
      "payable": false,
      "stateMutability": "view",
      "type": "function"
    },
    {
      "constant": true,
      "inputs": [],
      "name": "deposit",
      "outputs": [
        {
          "name": "",
          "type": "uint256"
        }
      ],
      "payable": false,
      "stateMutability": "view",
      "type": "function"
    },
    {
      "constant": false,
      "inputs": [
        {
          "name": "_a",
          "type": "uint256"
        },
        {
          "name": "_b",
          "type": "uint256"
        }
      ],
      "name": "setData",
      "outputs": [],
      "payable": false,
      "stateMutability": "nonpayable",
      "type": "function"
    },
    {
      "constant": true,
      "inputs": [
        {
          "name": "isAPlusB",
          "type": "bool"
        }
      ],
      "name": "aAndbSquare",
      "outputs": [
        {
          "name": "",
          "type": "uint256"
        }
      ],
      "payable": false,
      "stateMutability": "view",
      "type": "function"
    }
  ],
  "bytecode": "0x608060405234801561001057600080fd5b506102db806100206000396000f3fe608060405234801561001057600080fd5b506004361061007d5760003560e01c8063b02c43d01161005b578063b02c43d0146100f6578063bfb231d214610138578063d0e30db014610181578063e743b3651461019f5761007d565b80630dbe671f146100825780634848b1a5146100a05780634df7e3d0146100d8575b600080fd5b61008a6101e3565b6040518082815260200191505060405180910390f35b6100d6600480360360408110156100b657600080fd5b8101908080359060200190929190803590602001909291905050506101e9565b005b6100e06101fb565b6040518082815260200191505060405180910390f35b6101226004803603602081101561010c57600080fd5b8101908080359060200190929190505050610201565b6040518082815260200191505060405180910390f35b6101646004803603602081101561014e57600080fd5b810190808035906020019092919050505061021b565b604051808381526020018281526020019250505060405180910390f35b61018961024e565b6040518082815260200191505060405180910390f35b6101cd600480360360208110156101b557600080fd5b81019080803515159060200190929190505050610254565b6040518082815260200191505060405180910390f35b60005481565b81600081905550806001819055505050565b60015481565b60028160648110151561021057fe5b016000915090505481565b60678181548110151561022a57fe5b90600052602060002090600202016000915090508060000154908060010154905082565b60665481565b6000806000905060011515831515141561028957600154600154026001546000546002020260005460005402010190506102a6565b600154600154026001546000546002020260005460005402030190505b8091505091905056fea165627a7a723058202de756edf301651e2ebfca632ef4f0159d32644816f75eb3f1c6447cc512bcff0029",
  "source": "pragma solidity ^0.5.5;\r\ncontract MutationOperators {\r\n    uint public a;\r\n    uint public b;\r\n    uint256[100] public deposits;\r\n    uint256 public deposit;\r\n\r\n    struct Item {\r\n        uint price;\r\n        uint units; \r\n    }\r\n    Item[] public items;  \r\n\r\n\r\n    function setData(uint _a, uint _b) public {\r\n        a=_a;\r\n        b=_b;\r\n    }\r\n\r\n    function aAndbSquare(bool isAPlusB) public view returns (uint){\r\n        uint result=0;\r\n        if(isAPlusB == true){\r\n            result = (a*a)+(2*a*b)+(b*b);\r\n        }\r\n        else{\r\n            result = (a*a)-(2*a*b)+(b*b);\r\n        }\r\n        return result;\r\n    }\r\n\r\n\r\n}",
  "sourcePath": "C:\\Users\\ramah\\personal-projects\\musc-testing-r2-custom\\contracts\\MutationOperators.sol",
  "compiler": {
    "name": "solc",
    "version": "0.5.5+commit.47a71e8f.Emscripten.clang"
  },
  "schemaVersion": "3.4.3",
  "updatedAt": "2021-11-29T01:03:23.927Z",
  "devdoc": {
    "methods": {}
  },
  "userdoc": {
    "methods": {}
  }
}