{
  "contractName": "MutationOperatorsTwo",
  "abi": [
    {
      "constant": true,
      "inputs": [
        {
          "name": "",
          "type": "uint256"
        }
      ],
      "name": "deposits",
      "outputs": [
        {
          "name": "",
          "type": "uint256"
        }
      ],
      "payable": false,
      "stateMutability": "view",
      "type": "function"
    },
    {
      "constant": true,
      "inputs": [
        {
          "name": "",
          "type": "uint256"
        }
      ],
      "name": "items",
      "outputs": [
        {
          "name": "price",
          "type": "uint256"
        },
        {
          "name": "units",
          "type": "uint256"
        }
      ],
      "payable": false,
      "stateMutability": "view",
      "type": "function"
    },
    {
      "constant": true,
      "inputs": [],
      "name": "deposit",
      "outputs": [
        {
          "name": "",
          "type": "uint256"
        }
      ],
      "payable": false,
      "stateMutability": "view",
      "type": "function"
    },
    {
      "constant": true,
      "inputs": [
        {
          "name": "count",
          "type": "uint256"
        }
      ],
      "name": "sum",
      "outputs": [
        {
          "name": "",
          "type": "uint256"
        }
      ],
      "payable": false,
      "stateMutability": "pure",
      "type": "function"
    },
    {
      "constant": true,
      "inputs": [
        {
          "name": "_itemIdx",
          "type": "uint256"
        },
        {
          "name": "_units",
          "type": "uint256"
        }
      ],
      "name": "setUsingMemory",
      "outputs": [],
      "payable": false,
      "stateMutability": "view",
      "type": "function"
    },
    {
      "constant": true,
      "inputs": [
        {
          "name": "_itemIdx",
          "type": "uint256"
        }
      ],
      "name": "getUsingMemory",
      "outputs": [
        {
          "name": "",
          "type": "uint256"
        }
      ],
      "payable": false,
      "stateMutability": "view",
      "type": "function"
    },
    {
      "constant": false,
      "inputs": [
        {
          "name": "acc",
          "type": "address"
        }
      ],
      "name": "depositAmount",
      "outputs": [
        {
          "name": "",
          "type": "uint256"
        }
      ],
      "payable": false,
      "stateMutability": "nonpayable",
      "type": "function"
    }
  ],
  "bytecode": "0x608060405234801561001057600080fd5b50610415806100206000396000f3fe608060405234801561001057600080fd5b506004361061007d5760003560e01c8063b02c43d01161005b578063b02c43d014610154578063bfb231d214610196578063c3a9a866146101df578063d0e30db0146102215761007d565b80630e40df1314610082578063188b85b4146100ba57806350f62da7146100fc575b600080fd5b6100b86004803603604081101561009857600080fd5b81019080803590602001909291908035906020019092919050505061023f565b005b6100e6600480360360208110156100d057600080fd5b8101908080359060200190929190505050610294565b6040518082815260200191505060405180910390f35b61013e6004803603602081101561011257600080fd5b81019080803573ffffffffffffffffffffffffffffffffffffffff1690602001909291905050506102c5565b6040518082815260200191505060405180910390f35b6101806004803603602081101561016a57600080fd5b8101908080359060200190929190505050610327565b6040518082815260200191505060405180910390f35b6101c2600480360360208110156101ac57600080fd5b8101908080359060200190929190505050610341565b604051808381526020018281526020019250505060405180910390f35b61020b600480360360208110156101f557600080fd5b8101908080359060200190929190505050610374565b6040518082815260200191505060405180910390f35b6102296103c9565b6040518082815260200191505060405180910390f35b6102476103cf565b60658381548110151561025657fe5b906000526020600020906002020160405180604001604052908160008201548152602001600182015481525050905081816020018181525050505050565b6000806000905060008090505b838110156102bb57808201915080806001019150506102a1565b5080915050919050565b60008173ffffffffffffffffffffffffffffffffffffffff166108fc6103e89081150290604051600060405180830381858888f1935050505015801561030f573d6000803e3d6000fd5b506103e8606454016064819055506064549050919050565b60008160648110151561033657fe5b016000915090505481565b60658181548110151561035057fe5b90600052602060002090600202016000915090508060000154908060010154905082565b600061037e6103cf565b60658381548110151561038d57fe5b90600052602060002090600202016040518060400160405290816000820154815260200160018201548152505090508060200151915050919050565b60645481565b60405180604001604052806000815260200160008152509056fea165627a7a723058207c623a467373e68a199379263e3c2bded197ba00891406a105d0acf4adb0a0970029",
  "source": "pragma solidity ^0.5.5;\r\n\r\ncontract MutationOperatorsTwo {\r\n    uint256[100] public deposits;\r\n    uint256 public deposit;\r\n\r\n    struct Item {\r\n        uint256 price;\r\n        uint256 units;\r\n    }\r\n    Item[] public items;\r\n\r\n    function sum(uint256 count) public pure returns (uint256) {\r\n        uint256 s = 0;\r\n        for (uint256 i = 0; i < count; i++) {\r\n            s = s + i;\r\n        }\r\n        return s;\r\n    }\r\n\r\n    function setUsingMemory(uint256 _itemIdx, uint256 _units) public view {\r\n        Item memory item = items[_itemIdx];\r\n        item.units = _units;\r\n    }\r\n\r\n    function getUsingMemory(uint256 _itemIdx) public view returns (uint256) {\r\n        Item memory item = items[_itemIdx];\r\n        return item.units;\r\n    }\r\n\r\n    function depositAmount(address payable acc) public returns (uint256) {\r\n        acc.transfer(1000);\r\n        deposit = deposit + 1000;\r\n        return deposit;\r\n    }\r\n}\r\n",
  "sourcePath": "C:\\Users\\ramah\\personal-projects\\musc-testing-r2-custom\\contracts\\MutationOperatorsTwo.sol",
  "compiler": {
    "name": "solc",
    "version": "0.5.5+commit.47a71e8f.Emscripten.clang"
  },
  "schemaVersion": "3.4.3",
  "updatedAt": "2021-11-29T01:03:23.928Z",
  "devdoc": {
    "methods": {}
  },
  "userdoc": {
    "methods": {}
  }
}