{
  "contractName": "Test1",
  "abi": [
    {
      "constant": true,
      "inputs": [
        {
          "name": "",
          "type": "uint256"
        }
      ],
      "name": "arr",
      "outputs": [
        {
          "name": "",
          "type": "uint256"
        }
      ],
      "payable": false,
      "stateMutability": "view",
      "type": "function"
    },
    {
      "constant": true,
      "inputs": [],
      "name": "data",
      "outputs": [
        {
          "name": "",
          "type": "uint256"
        }
      ],
      "payable": false,
      "stateMutability": "view",
      "type": "function"
    },
    {
      "constant": false,
      "inputs": [],
      "name": "sort",
      "outputs": [],
      "payable": false,
      "stateMutability": "nonpayable",
      "type": "function"
    },
    {
      "constant": false,
      "inputs": [
        {
          "name": "b",
          "type": "uint256"
        }
      ],
      "name": "indexOfInt",
      "outputs": [],
      "payable": false,
      "stateMutability": "nonpayable",
      "type": "function"
    },
    {
      "constant": false,
      "inputs": [],
      "name": "uniqueItemCount",
      "outputs": [],
      "payable": false,
      "stateMutability": "nonpayable",
      "type": "function"
    },
    {
      "constant": false,
      "inputs": [],
      "name": "getRange",
      "outputs": [],
      "payable": false,
      "stateMutability": "nonpayable",
      "type": "function"
    }
  ],
  "bytecode": "0x60806040526040518060800160405280600a60ff168152602001600760ff168152602001600960ff168152602001600660ff168152506001906004610045929190610058565b5034801561005257600080fd5b506100cf565b828054828255906000526020600020908101928215610099579160200282015b82811115610098578251829060ff16905591602001919060010190610078565b5b5090506100a691906100aa565b5090565b6100cc91905b808211156100c85760008160009055506001016100b0565b5090565b90565b610419806100de6000396000f3fe608060405234801561001057600080fd5b50600436106100625760003560e01c806339e448641461006757806371e5ee5f1461007157806373d4a13a146100b35780638cdc86a6146100d15780639b85961f146100db578063c99c846b146100e5575b600080fd5b61006f610113565b005b61009d6004803603602081101561008757600080fd5b81019080803590602001909291905050506101c9565b6040518082815260200191505060405180910390f35b6100bb6101ec565b6040518082815260200191505060405180910390f35b6100d96101f2565b005b6100e36102e9565b005b610111600480360360208110156100fb57600080fd5b81019080803590602001909291905050506103a0565b005b600080905060008090506000809050600080600190505b6001805490508510156101bb576001905060018581548110151561014a57fe5b906000526020600020015491505b6001805490508410156101985760018481548110151561017457fe5b906000526020600020015482141561018b57600090505b8380600101945050610158565b6001151581151514156101ae5782806001019350505b848060010195505061012a565b826000819055505050505050565b6001818154811015156101d857fe5b906000526020600020016000915090505481565b60005481565b6000600180549050905060008090505b818110156102e55760006001820190505b828110156102d75760018181548110151561022a57fe5b906000526020600020015460018381548110151561024457fe5b906000526020600020015411156102ca57600060018381548110151561026657fe5b9060005260206000200154905060018281548110151561028257fe5b906000526020600020015460018481548110151561029c57fe5b9060005260206000200181905550806001838154811015156102ba57fe5b9060005260206000200181905550505b8080600101915050610213565b508080600101915050610202565b5050565b6000809050600060019050600061270f90505b600180549050831015610392578160018481548110151561031957fe5b906000526020600020015411156103475760018381548110151561033957fe5b906000526020600020015491505b8060018481548110151561035757fe5b906000526020600020015410156103855760018381548110151561037757fe5b906000526020600020015490505b82806001019350506102fc565b808203600081905550505050565b60008090505b6001805490508110156103e957816001828154811015156103c357fe5b906000526020600020015414156103dc57806000819055505b80806001019150506103a6565b505056fea165627a7a72305820db10cb9119e901a16f67319ecfd15aa06fe8a481c386e26aee48a61f6ba411bf0029",
  "source": "pragma solidity ^0.5.5;\r\n\r\ncontract Test1 {\r\n    uint256 public data;\r\n    uint256[] public arr = [10 , 7, 9, 6];\r\n\r\n\r\n    //statement deletion\r\n    function sort() public {\r\n        uint256 length = arr.length;\r\n        for(uint i = 0; i < length; i++) {\r\n            for(uint j = i+1; j < length ;j++) {\r\n                if(arr[i] > arr[j]) {\r\n                    uint256 temp = arr[i];\r\n                    arr[i] = arr[j];\r\n                    arr[j] = temp;\r\n                }\r\n            }\r\n        }\r\n    }\r\n\t//\r\n\t/*\r\n\tfunction  indexOfInt(uint256[10] memory  a,  uint256 b) public{\r\n        uint256 i = 0;\r\n        for(i; i < uint256(a.length) ; i++)\r\n        {\r\n            if(a[i] == b)\r\n                data = i;\r\n        }\r\n    }*/\r\n\tfunction  indexOfInt(uint256 b) public{\r\n        uint256 i = 0;\r\n        for(i; i < arr.length ; i++)\r\n        {\r\n            if(arr[i] == b)\r\n                data = i;\r\n        }\r\n    }\r\n    function  uniqueItemCount() public{\r\n        uint256 i = 0;\r\n        uint256 j = 0;\r\n        uint256 count = 0;\r\n        uint currItem;\r\n        bool unique = true;\r\n        for(i; i < arr.length ; i++)\r\n        {\r\n            unique = true;\r\n            currItem = arr[i];\r\n            for(j; j < arr.length ; j++)\r\n            {\r\n                if(currItem == arr[j])\r\n                {\r\n                    unique = false;\r\n                }\r\n            }\r\n            if(unique == true)\r\n            {\r\n                count++;\r\n            }\r\n                \r\n        }\r\n        data = count;\r\n    }\r\n    \r\n\tfunction getRange() public {\r\n\t\tuint256 i = 0;\r\n\t\tuint256 high = 1;\r\n\t\tuint256 low = 9999;\r\n        for(i; i < arr.length ; i++)\r\n        {\r\n            if(arr[i] > high)\r\n                high = arr[i];\r\n\t\t\tif(arr[i] < low)\r\n\t\t\t\tlow = arr[i];\r\n        }\r\n\t\tdata = high - low;\r\n\t}\r\n\t\r\n\t/*\r\n    //conditional operator change\r\n    function getUint8FromByte32(bytes32 _b32, uint8 byteindex) public  {\r\n\r\n    \tuint numdigits = 64;\r\n    \tuint buint = uint(_b32);\r\n    \tuint upperpowervar = 16 ** (numdigits - (byteindex*2)); \t\t\r\n    \tuint lowerpowervar = 16 ** (numdigits - 2 - (byteindex*2));\t\t\r\n    \tuint postheadchop;\r\n        byteindex == 0 ? (postheadchop = buint) : (postheadchop = buint % upperpowervar);\t\t\t\t\r\n    \tuint remainder = postheadchop % lowerpowervar; \t\t\t\r\n    \tuint evenedout = postheadchop - remainder; \t\t\t\t\r\n    \tuint b = evenedout / lowerpowervar; \r\n\t\tdata = uint256(b);\r\n        //return uint8(b);\t\t\t\t\t\r\n    }*/\r\n\r\n}\r\n",
  "sourcePath": "C:\\Users\\ramah\\personal-projects\\musc-testing-r2-custom\\contracts\\Test1.sol",
  "compiler": {
    "name": "solc",
    "version": "0.5.5+commit.47a71e8f.Emscripten.clang"
  },
  "schemaVersion": "3.4.3",
  "updatedAt": "2021-11-29T01:03:23.992Z",
  "devdoc": {
    "methods": {}
  },
  "userdoc": {
    "methods": {}
  }
}