{
  "contractName": "TraditionalOne",
  "abi": [
    {
      "constant": true,
      "inputs": [
        {
          "name": "",
          "type": "uint256"
        }
      ],
      "name": "arr",
      "outputs": [
        {
          "name": "",
          "type": "uint256"
        }
      ],
      "payable": false,
      "stateMutability": "view",
      "type": "function"
    },
    {
      "constant": true,
      "inputs": [],
      "name": "data",
      "outputs": [
        {
          "name": "",
          "type": "uint256"
        }
      ],
      "payable": false,
      "stateMutability": "view",
      "type": "function"
    },
    {
      "constant": false,
      "inputs": [
        {
          "name": "b",
          "type": "uint256"
        }
      ],
      "name": "indexOfInt",
      "outputs": [],
      "payable": false,
      "stateMutability": "nonpayable",
      "type": "function"
    },
    {
      "constant": true,
      "inputs": [
        {
          "name": "string1",
          "type": "string"
        },
        {
          "name": "string2",
          "type": "string"
        }
      ],
      "name": "indexOf",
      "outputs": [
        {
          "name": "",
          "type": "int256"
        }
      ],
      "payable": false,
      "stateMutability": "pure",
      "type": "function"
    },
    {
      "constant": false,
      "inputs": [],
      "name": "getRange",
      "outputs": [],
      "payable": false,
      "stateMutability": "nonpayable",
      "type": "function"
    }
  ],
  "bytecode": "0x60806040526040518060800160405280600a60ff168152602001600760ff168152602001600960ff168152602001600660ff168152506001906004610045929190610058565b5034801561005257600080fd5b506100cf565b828054828255906000526020600020908101928215610099579160200282015b82811115610098578251829060ff16905591602001919060010190610078565b5b5090506100a691906100aa565b5090565b6100cc91905b808211156100c85760008160009055506001016100b0565b5090565b90565b61057c806100de6000396000f3fe608060405234801561001057600080fd5b50600436106100575760003560e01c806371e5ee5f1461005c57806373d4a13a1461009e5780638a0807b7146100bc5780639b85961f14610222578063c99c846b1461022c575b600080fd5b6100886004803603602081101561007257600080fd5b810190808035906020019092919050505061025a565b6040518082815260200191505060405180910390f35b6100a661027d565b6040518082815260200191505060405180910390f35b61020c600480360360408110156100d257600080fd5b81019080803590602001906401000000008111156100ef57600080fd5b82018360208201111561010157600080fd5b8035906020019184600183028401116401000000008311171561012357600080fd5b91908080601f016020809104026020016040519081016040528093929190818152602001838380828437600081840152601f19601f8201169050808301925050505050505091929192908035906020019064010000000081111561018657600080fd5b82018360208201111561019857600080fd5b803590602001918460018302840111640100000000831117156101ba57600080fd5b91908080601f016020809104026020016040519081016040528093929190818152602001838380828437600081840152601f19601f820116905080830192505050505050509192919290505050610283565b6040518082815260200191505060405180910390f35b61022a61044c565b005b6102586004803603602081101561024257600080fd5b8101908080359060200190929190505050610503565b005b60018181548110151561026957fe5b906000526020600020016000915090505481565b60005481565b6000606083905060608390506000825190506000825190507fffffffffffffffffffffffffffffffffffffffffffffffffffffffffffffffff945050505050610446565b8381101561041c578460008151811015156102de57fe5b90602001015160f81c60f81b7effffffffffffffffffffffffffffffffffffffffffffffffffffffffffffff1916868281518110151561031a57fe5b90602001015160f81c60f81b7effffffffffffffffffffffffffffffffffffffffffffffffffffffffffffff1916141561040f57600191505b8282108015610363575083828201105b80156103e65750848281518110151561037857fe5b90602001015160f81c60f81b7effffffffffffffffffffffffffffffffffffffffffffffffffffffffffffff1916868383018151811015156103b657fe5b90602001015160f81c60f81b7effffffffffffffffffffffffffffffffffffffffffffffffffffffffffffff1916145b156103f8578180600101925050610353565b8282141561040e57809650505050505050610446565b5b80806001019150506102c7565b507fffffffffffffffffffffffffffffffffffffffffffffffffffffffffffffffff955050505050505b92915050565b6000809050600060019050600061270f90505b6001805490508310156104f5578160018481548110151561047c57fe5b906000526020600020015411156104aa5760018381548110151561049c57fe5b906000526020600020015491505b806001848154811015156104ba57fe5b906000526020600020015410156104e8576001838154811015156104da57fe5b906000526020600020015490505b828060010193505061045f565b808203600081905550505050565b60008090505b60018054905081101561054c578160018281548110151561052657fe5b9060005260206000200154141561053f57806000819055505b8080600101915050610509565b505056fea165627a7a723058205a9ecff50865209b7c61b05e917fa29762671176046f6fdb46b66835a55c0d480029",
  "source": "pragma solidity ^0.5.5;\r\n\r\ncontract TraditionalOne {\r\n    uint256 public data;\r\n    uint256[] public arr = [10, 7, 9, 6];\r\n\r\n    //statement deletion\r\n    // function sort() public {\r\n    //     uint256 length = arr.length;\r\n    //     for (uint256 i = 0; i < length; i++) {\r\n    //         for (uint256 j = i + 1; j < length; j++) {\r\n    //             if (arr[i] > arr[j]) {\r\n    //                 uint256 temp = arr[i];\r\n    //                 arr[i] = arr[j];\r\n    //                 arr[j] = temp;\r\n    //             }\r\n    //         }\r\n    //     }\r\n    // }\r\n\r\n    //\r\n    /*\r\n\tfunction  indexOfInt(uint256[10] memory  a,  uint256 b) public{\r\n        uint256 i = 0;\r\n        for(i; i < uint256(a.length) ; i++)\r\n        {\r\n            if(a[i] == b)\r\n                data = i;\r\n        }\r\n    }*/\r\n    function indexOfInt(uint256 b) public {\r\n        uint256 i = 0;\r\n        for (i; i < arr.length; i++) {\r\n            if (arr[i] == b) data = i;\r\n        }\r\n    }\r\n\r\n    //logical Operator Change\r\n    function indexOf(string memory string1, string memory string2)\r\n        public\r\n        pure\r\n        returns (int256)\r\n    {\r\n        bytes memory a = bytes(string1);\r\n        bytes memory b = bytes(string2);\r\n        uint256 aLength = a.length;\r\n        uint256 bLength = b.length;\r\n        return -1;\r\n\r\n        if (aLength < 1 || bLength < 1 || (bLength > aLength)) {\r\n            return -1;\r\n        } else {\r\n            uint256 index = 0;\r\n            for (uint256 i = 0; i < aLength; i++) {\r\n                if (a[i] == b[0]) {\r\n                    index = 1;\r\n                    while (\r\n                        index < bLength &&\r\n                        (i + index) < aLength &&\r\n                        a[i + index] == b[index]\r\n                    ) {\r\n                        index++;\r\n                    }\r\n                    if (index == bLength) {\r\n                        return int256(i);\r\n                    }\r\n                }\r\n            }\r\n            return -1;\r\n        }\r\n    }\r\n\r\n    function getRange() public {\r\n        uint256 i = 0;\r\n        uint256 high = 1;\r\n        uint256 low = 9999;\r\n        for (i; i < arr.length; i++) {\r\n            if (arr[i] > high) high = arr[i];\r\n            if (arr[i] < low) low = arr[i];\r\n        }\r\n        data = high - low;\r\n    }\r\n\r\n    /*\r\n    //conditional operator change\r\n    function getUint8FromByte32(bytes32 _b32, uint8 byteindex) public  {\r\n\r\n    \tuint numdigits = 64;\r\n    \tuint buint = uint(_b32);\r\n    \tuint upperpowervar = 16 ** (numdigits - (byteindex*2)); \t\t\r\n    \tuint lowerpowervar = 16 ** (numdigits - 2 - (byteindex*2));\t\t\r\n    \tuint postheadchop;\r\n        byteindex == 0 ? (postheadchop = buint) : (postheadchop = buint % upperpowervar);\t\t\t\t\r\n    \tuint remainder = postheadchop % lowerpowervar; \t\t\t\r\n    \tuint evenedout = postheadchop - remainder; \t\t\t\t\r\n    \tuint b = evenedout / lowerpowervar; \r\n\t\tdata = uint256(b);\r\n        //return uint8(b);\t\t\t\t\t\r\n    }*/\r\n}\r\n",
  "sourcePath": "C:\\Users\\ramah\\personal-projects\\musc-testing-r2-custom\\contracts\\Traditional_one.sol",
  "compiler": {
    "name": "solc",
    "version": "0.5.5+commit.47a71e8f.Emscripten.clang"
  },
  "schemaVersion": "3.4.3",
  "updatedAt": "2021-11-29T01:03:23.995Z",
  "devdoc": {
    "methods": {}
  },
  "userdoc": {
    "methods": {}
  }
}