{
  "contractName": "TraditionalOne",
  "abi": [
    {
      "constant": true,
      "inputs": [
        {
          "name": "",
          "type": "uint256"
        }
      ],
      "name": "arr",
      "outputs": [
        {
          "name": "",
          "type": "uint256"
        }
      ],
      "payable": false,
      "stateMutability": "view",
      "type": "function"
    },
    {
      "constant": true,
      "inputs": [],
      "name": "data",
      "outputs": [
        {
          "name": "",
          "type": "uint256"
        }
      ],
      "payable": false,
      "stateMutability": "view",
      "type": "function"
    },
    {
      "constant": false,
      "inputs": [],
      "name": "sort",
      "outputs": [],
      "payable": false,
      "stateMutability": "nonpayable",
      "type": "function"
    },
    {
      "constant": false,
      "inputs": [
        {
          "name": "b",
          "type": "uint256"
        }
      ],
      "name": "indexOfInt",
      "outputs": [],
      "payable": false,
      "stateMutability": "nonpayable",
      "type": "function"
    },
    {
      "constant": true,
      "inputs": [
        {
          "name": "string1",
          "type": "string"
        },
        {
          "name": "string2",
          "type": "string"
        }
      ],
      "name": "indexOf",
      "outputs": [
        {
          "name": "",
          "type": "int256"
        }
      ],
      "payable": false,
      "stateMutability": "pure",
      "type": "function"
    },
    {
      "constant": false,
      "inputs": [],
      "name": "getRange",
      "outputs": [],
      "payable": false,
      "stateMutability": "nonpayable",
      "type": "function"
    }
  ],
  "bytecode": "0x60806040526040518060800160405280600a60ff168152602001600760ff168152602001600960ff168152602001600660ff168152506001906004610045929190610058565b5034801561005257600080fd5b506100cf565b828054828255906000526020600020908101928215610099579160200282015b82811115610098578251829060ff16905591602001919060010190610078565b5b5090506100a691906100aa565b5090565b6100cc91905b808211156100c85760008160009055506001016100b0565b5090565b90565b610688806100de6000396000f3fe608060405234801561001057600080fd5b50600436106100625760003560e01c806371e5ee5f1461006757806373d4a13a146100a95780638a0807b7146100c75780638cdc86a61461022d5780639b85961f14610237578063c99c846b14610241575b600080fd5b6100936004803603602081101561007d57600080fd5b810190808035906020019092919050505061026f565b6040518082815260200191505060405180910390f35b6100b1610292565b6040518082815260200191505060405180910390f35b610217600480360360408110156100dd57600080fd5b81019080803590602001906401000000008111156100fa57600080fd5b82018360208201111561010c57600080fd5b8035906020019184600183028401116401000000008311171561012e57600080fd5b91908080601f016020809104026020016040519081016040528093929190818152602001838380828437600081840152601f19601f8201169050808301925050505050505091929192908035906020019064010000000081111561019157600080fd5b8201836020820111156101a357600080fd5b803590602001918460018302840111640100000000831117156101c557600080fd5b91908080601f016020809104026020016040519081016040528093929190818152602001838380828437600081840152601f19601f820116905080830192505050505050509192919290505050610298565b6040518082815260200191505060405180910390f35b610235610461565b005b61023f610558565b005b61026d6004803603602081101561025757600080fd5b810190808035906020019092919050505061060f565b005b60018181548110151561027e57fe5b906000526020600020016000915090505481565b60005481565b6000606083905060608390506000825190506000825190507fffffffffffffffffffffffffffffffffffffffffffffffffffffffffffffffff94505050505061045b565b83811015610431578460008151811015156102f357fe5b90602001015160f81c60f81b7effffffffffffffffffffffffffffffffffffffffffffffffffffffffffffff1916868281518110151561032f57fe5b90602001015160f81c60f81b7effffffffffffffffffffffffffffffffffffffffffffffffffffffffffffff1916141561042457600191505b8282108015610378575083828201105b80156103fb5750848281518110151561038d57fe5b90602001015160f81c60f81b7effffffffffffffffffffffffffffffffffffffffffffffffffffffffffffff1916868383018151811015156103cb57fe5b90602001015160f81c60f81b7effffffffffffffffffffffffffffffffffffffffffffffffffffffffffffff1916145b1561040d578180600101925050610368565b828214156104235780965050505050505061045b565b5b80806001019150506102dc565b507fffffffffffffffffffffffffffffffffffffffffffffffffffffffffffffffff955050505050505b92915050565b6000600180549050905060008090505b818110156105545760006001820190505b828110156105465760018181548110151561049957fe5b90600052602060002001546001838154811015156104b357fe5b906000526020600020015411156105395760006001838154811015156104d557fe5b906000526020600020015490506001828154811015156104f157fe5b906000526020600020015460018481548110151561050b57fe5b90600052602060002001819055508060018381548110151561052957fe5b9060005260206000200181905550505b8080600101915050610482565b508080600101915050610471565b5050565b6000809050600060019050600061270f90505b600180549050831015610601578160018481548110151561058857fe5b906000526020600020015411156105b6576001838154811015156105a857fe5b906000526020600020015491505b806001848154811015156105c657fe5b906000526020600020015410156105f4576001838154811015156105e657fe5b906000526020600020015490505b828060010193505061056b565b808203600081905550505050565b60008090505b600180549050811015610658578160018281548110151561063257fe5b9060005260206000200154141561064b57806000819055505b8080600101915050610615565b505056fea165627a7a72305820281e08ed0878a1c6a4730e691db90099a9a35eedf97fe7d335fac47da3853d9b0029",
  "source": "pragma solidity ^0.5.5;\r\n\r\ncontract TraditionalOne {\r\n    uint256 public data;\r\n    uint256[] public arr = [10, 7, 9, 6];\r\n\r\n    //statement deletion\r\n    function sort() public {\r\n        uint256 length = arr.length;\r\n        for (uint256 i = 0; i < length; i++) {\r\n            for (uint256 j = i + 1; j < length; j++) {\r\n                if (arr[i] > arr[j]) {\r\n                    uint256 temp = arr[i];\r\n                    arr[i] = arr[j];\r\n                    arr[j] = temp;\r\n                }\r\n            }\r\n        }\r\n    }\r\n\r\n    //\r\n    /*\r\n\tfunction  indexOfInt(uint256[10] memory  a,  uint256 b) public{\r\n        uint256 i = 0;\r\n        for(i; i < uint256(a.length) ; i++)\r\n        {\r\n            if(a[i] == b)\r\n                data = i;\r\n        }\r\n    }*/\r\n    function indexOfInt(uint256 b) public {\r\n        uint256 i = 0;\r\n        for (i; i < arr.length; i++) {\r\n            if (arr[i] == b) data = i;\r\n        }\r\n    }\r\n\r\n    //logical Operator Change\r\n    function indexOf(string memory string1, string memory string2)\r\n        public\r\n        pure\r\n        returns (int256)\r\n    {\r\n        bytes memory a = bytes(string1);\r\n        bytes memory b = bytes(string2);\r\n        uint256 aLength = a.length;\r\n        uint256 bLength = b.length;\r\n        return -1;\r\n\r\n        if (aLength < 1 || bLength < 1 || (bLength > aLength)) {\r\n            return -1;\r\n        } else {\r\n            uint256 index = 0;\r\n            for (uint256 i = 0; i < aLength; i++) {\r\n                if (a[i] == b[0]) {\r\n                    index = 1;\r\n                    while (\r\n                        index < bLength &&\r\n                        (i + index) < aLength &&\r\n                        a[i + index] == b[index]\r\n                    ) {\r\n                        index++;\r\n                    }\r\n                    if (index == bLength) {\r\n                        return int256(i);\r\n                    }\r\n                }\r\n            }\r\n            return -1;\r\n        }\r\n    }\r\n\r\n    function getRange() public {\r\n        uint256 i = 0;\r\n        uint256 high = 1;\r\n        uint256 low = 9999;\r\n        for (i; i < arr.length; i++) {\r\n            if (arr[i] > high) high = arr[i];\r\n            if (arr[i] < low) low = arr[i];\r\n        }\r\n        data = high - low;\r\n    }\r\n\r\n    /*\r\n    //conditional operator change\r\n    function getUint8FromByte32(bytes32 _b32, uint8 byteindex) public  {\r\n\r\n    \tuint numdigits = 64;\r\n    \tuint buint = uint(_b32);\r\n    \tuint upperpowervar = 16 ** (numdigits - (byteindex*2)); \t\t\r\n    \tuint lowerpowervar = 16 ** (numdigits - 2 - (byteindex*2));\t\t\r\n    \tuint postheadchop;\r\n        byteindex == 0 ? (postheadchop = buint) : (postheadchop = buint % upperpowervar);\t\t\t\t\r\n    \tuint remainder = postheadchop % lowerpowervar; \t\t\t\r\n    \tuint evenedout = postheadchop - remainder; \t\t\t\t\r\n    \tuint b = evenedout / lowerpowervar; \r\n\t\tdata = uint256(b);\r\n        //return uint8(b);\t\t\t\t\t\r\n    }*/\r\n}\r\n",
  "sourcePath": "C:\\Users\\ramah\\personal-projects\\musc-testing-r2-custom\\contracts\\Traditional_one.sol",
  "compiler": {
    "name": "solc",
    "version": "0.5.5+commit.47a71e8f.Emscripten.clang"
  },
  "schemaVersion": "3.4.3",
  "updatedAt": "2021-10-30T22:32:55.816Z",
  "devdoc": {
    "methods": {}
  },
  "userdoc": {
    "methods": {}
  }
}